{"abi":[{"type":"constructor","inputs":[{"name":"_treasury","type":"address","internalType":"address"},{"name":"_protocolFeeBps","type":"uint256","internalType":"uint256"}],"stateMutability":"nonpayable"},{"type":"function","name":"MAX_MARKET_FEE_BPS","inputs":[],"outputs":[{"name":"","type":"uint256","internalType":"uint256"}],"stateMutability":"view"},{"type":"function","name":"MAX_PROTOCOL_FEE_BPS","inputs":[],"outputs":[{"name":"","type":"uint256","internalType":"uint256"}],"stateMutability":"view"},{"type":"function","name":"createMarket","inputs":[{"name":"collateral","type":"address","internalType":"address"},{"name":"question","type":"string","internalType":"string"},{"name":"deadline","type":"uint256","internalType":"uint256"},{"name":"feeBps","type":"uint256","internalType":"uint256"},{"name":"initialLiquidity","type":"uint256","internalType":"uint256"}],"outputs":[{"name":"market","type":"address","internalType":"address"}],"stateMutability":"nonpayable"},{"type":"function","name":"getMarkets","inputs":[{"name":"offset","type":"uint256","internalType":"uint256"},{"name":"limit","type":"uint256","internalType":"uint256"}],"outputs":[{"name":"page","type":"address[]","internalType":"address[]"}],"stateMutability":"view"},{"type":"function","name":"getMarketsByHost","inputs":[{"name":"host","type":"address","internalType":"address"}],"outputs":[{"name":"","type":"address[]","internalType":"address[]"}],"stateMutability":"view"},{"type":"function","name":"isMarket","inputs":[{"name":"","type":"address","internalType":"address"}],"outputs":[{"name":"","type":"bool","internalType":"bool"}],"stateMutability":"view"},{"type":"function","name":"marketCount","inputs":[],"outputs":[{"name":"","type":"uint256","internalType":"uint256"}],"stateMutability":"view"},{"type":"function","name":"marketCountByHost","inputs":[{"name":"host","type":"address","internalType":"address"}],"outputs":[{"name":"","type":"uint256","internalType":"uint256"}],"stateMutability":"view"},{"type":"function","name":"protocolAdmin","inputs":[],"outputs":[{"name":"","type":"address","internalType":"address"}],"stateMutability":"view"},{"type":"function","name":"protocolFeeBps","inputs":[],"outputs":[{"name":"","type":"uint256","internalType":"uint256"}],"stateMutability":"view"},{"type":"function","name":"protocolTreasury","inputs":[],"outputs":[{"name":"","type":"address","internalType":"address"}],"stateMutability":"view"},{"type":"function","name":"setProtocolAdmin","inputs":[{"name":"newAdmin","type":"address","internalType":"address"}],"outputs":[],"stateMutability":"nonpayable"},{"type":"function","name":"setProtocolFeeBps","inputs":[{"name":"newFeeBps","type":"uint256","internalType":"uint256"}],"outputs":[],"stateMutability":"nonpayable"},{"type":"function","name":"setProtocolTreasury","inputs":[{"name":"newTreasury","type":"address","internalType":"address"}],"outputs":[],"stateMutability":"nonpayable"},{"type":"event","name":"MarketCreated","inputs":[{"name":"market","type":"address","indexed":true,"internalType":"address"},{"name":"host","type":"address","indexed":true,"internalType":"address"},{"name":"collateral","type":"address","indexed":true,"internalType":"address"},{"name":"question","type":"string","indexed":false,"internalType":"string"},{"name":"deadline","type":"uint256","indexed":false,"internalType":"uint256"},{"name":"feeBps","type":"uint256","indexed":false,"internalType":"uint256"},{"name":"initialLiquidity","type":"uint256","indexed":false,"internalType":"uint256"}],"anonymous":false},{"type":"event","name":"ProtocolAdminUpdated","inputs":[{"name":"oldAdmin","type":"address","indexed":true,"internalType":"address"},{"name":"newAdmin","type":"address","indexed":true,"internalType":"address"}],"anonymous":false},{"type":"event","name":"ProtocolFeeBpsUpdated","inputs":[{"name":"oldFee","type":"uint256","indexed":false,"internalType":"uint256"},{"name":"newFee","type":"uint256","indexed":false,"internalType":"uint256"}],"anonymous":false},{"type":"event","name":"ProtocolTreasuryUpdated","inputs":[{"name":"oldTreasury","type":"address","indexed":true,"internalType":"address"},{"name":"newTreasury","type":"address","indexed":true,"internalType":"address"}],"anonymous":false},{"type":"error","name":"DeadlineInPast","inputs":[]},{"type":"error","name":"EmptyQuestion","inputs":[]},{"type":"error","name":"FeeTooHigh","inputs":[]},{"type":"error","name":"InvalidPaginationRange","inputs":[]},{"type":"error","name":"NotAdmin","inputs":[]},{"type":"error","name":"ProtocolFeeTooHigh","inputs":[]},{"type":"error","name":"ReentrancyGuardReentrantCall","inputs":[]},{"type":"error","name":"SafeERC20FailedOperation","inputs":[{"name":"token","type":"address","internalType":"address"}]},{"type":"error","name":"SeedTooSmall","inputs":[]},{"type":"error","name":"ZeroAddress","inputs":[]}],"bytecode":{"object":"0x608060405234801561000f575f5ffd5b5060405161452938038061452983398181016040528101906100319190610246565b600161004f61004461018360201b60201c565b6101ac60201b60201c565b5f01819055505f73ffffffffffffffffffffffffffffffffffffffff168273ffffffffffffffffffffffffffffffffffffffff16036100ba576040517fd92e233d00000000000000000000000000000000000000000000000000000000815260040160405180910390fd5b610bb88111156100f6576040517f499fddb100000000000000000000000000000000000000000000000000000000815260040160405180910390fd5b335f5f6101000a81548173ffffffffffffffffffffffffffffffffffffffff021916908373ffffffffffffffffffffffffffffffffffffffff1602179055508160015f6101000a81548173ffffffffffffffffffffffffffffffffffffffff021916908373ffffffffffffffffffffffffffffffffffffffff160217905550806002819055505050610284565b5f7f9b779b17422d0df92223018b32b4d1fa46e071723d6817e2486d003becc55f005f1b905090565b5f819050919050565b5f5ffd5b5f73ffffffffffffffffffffffffffffffffffffffff82169050919050565b5f6101e2826101b9565b9050919050565b6101f2816101d8565b81146101fc575f5ffd5b50565b5f8151905061020d816101e9565b92915050565b5f819050919050565b61022581610213565b811461022f575f5ffd5b50565b5f815190506102408161021c565b92915050565b5f5f6040838503121561025c5761025b6101b5565b5b5f610269858286016101ff565b925050602061027a85828601610232565b9150509250929050565b614298806102915f395ff3fe608060405234801561000f575f5ffd5b50600436106100e8575f3560e01c806380968d481161008a578063b77def9b11610064578063b77def9b1461024a578063c0417e581461027a578063d522056f14610296578063ec979082146102c6576100e8565b806380968d48146101ce5780639a09b285146101fe578063a899c1f01461021a576100e8565b806349646e7e116100c657806349646e7e146101445780636d947e4b146101625780636ec934da14610180578063803db96d146101b0576100e8565b80630c5a61f8146100ec57806335659fb814610108578063420f686114610126575b5f5ffd5b61010660048036038101906101019190611107565b6102e4565b005b61011061048c565b60405161011d919061114a565b60405180910390f35b61012e610492565b60405161013b9190611172565b60405180910390f35b61014c6104b6565b604051610159919061114a565b60405180910390f35b61016a6104bc565b604051610177919061114a565b60405180910390f35b61019a60048036038101906101959190611107565b6104c2565b6040516101a791906111a5565b60405180910390f35b6101b86104df565b6040516101c59190611172565b60405180910390f35b6101e860048036038101906101e391906111e8565b610504565b6040516101f591906112dd565b60405180910390f35b61021860048036038101906102139190611107565b610693565b005b610234600480360381019061022f9190611107565b610839565b60405161024191906112dd565b60405180910390f35b610264600480360381019061025f9190611107565b610901565b604051610271919061114a565b60405180910390f35b610294600480360381019061028f91906112fd565b61094a565b005b6102b060048036038101906102ab9190611389565b610a50565b6040516102bd9190611172565b60405180910390f35b6102ce610e4c565b6040516102db919061114a565b60405180910390f35b5f5f9054906101000a900473ffffffffffffffffffffffffffffffffffffffff1673ffffffffffffffffffffffffffffffffffffffff163373ffffffffffffffffffffffffffffffffffffffff1614610369576040517f7bfa4b9f00000000000000000000000000000000000000000000000000000000815260040160405180910390fd5b5f73ffffffffffffffffffffffffffffffffffffffff168173ffffffffffffffffffffffffffffffffffffffff16036103ce576040517fd92e233d00000000000000000000000000000000000000000000000000000000815260040160405180910390fd5b8073ffffffffffffffffffffffffffffffffffffffff1660015f9054906101000a900473ffffffffffffffffffffffffffffffffffffffff1673ffffffffffffffffffffffffffffffffffffffff167f0c5d18caa145415182f8ad3d2563da586609cec04ac8505274d87bc43f00b4a460405160405180910390a38060015f6101000a81548173ffffffffffffffffffffffffffffffffffffffff021916908373ffffffffffffffffffffffffffffffffffffffff16021790555050565b60025481565b5f5f9054906101000a900473ffffffffffffffffffffffffffffffffffffffff1681565b6103e881565b610bb881565b6006602052805f5260405f205f915054906101000a900460ff1681565b60015f9054906101000a900473ffffffffffffffffffffffffffffffffffffffff1681565b60605f6004805490509050808410610567575f67ffffffffffffffff8111156105305761052f61141f565b5b60405190808252806020026020018201604052801561055e5781602001602082028036833780820191505090505b5091505061068d565b5f83856105749190611479565b905081811115610582578190505b5f858261058f91906114ac565b90508067ffffffffffffffff8111156105ab576105aa61141f565b5b6040519080825280602002602001820160405280156105d95781602001602082028036833780820191505090505b5093505f5f90505b8181101561068857600481886105f79190611479565b81548110610608576106076114df565b5b905f5260205f20015f9054906101000a900473ffffffffffffffffffffffffffffffffffffffff16858281518110610643576106426114df565b5b602002602001019073ffffffffffffffffffffffffffffffffffffffff16908173ffffffffffffffffffffffffffffffffffffffff16815250508060010190506105e1565b505050505b92915050565b5f5f9054906101000a900473ffffffffffffffffffffffffffffffffffffffff1673ffffffffffffffffffffffffffffffffffffffff163373ffffffffffffffffffffffffffffffffffffffff1614610718576040517f7bfa4b9f00000000000000000000000000000000000000000000000000000000815260040160405180910390fd5b5f73ffffffffffffffffffffffffffffffffffffffff168173ffffffffffffffffffffffffffffffffffffffff160361077d576040517fd92e233d00000000000000000000000000000000000000000000000000000000815260040160405180910390fd5b8073ffffffffffffffffffffffffffffffffffffffff165f5f9054906101000a900473ffffffffffffffffffffffffffffffffffffffff1673ffffffffffffffffffffffffffffffffffffffff167f96c81c3f4599d5ad4b4ce465555174670819d69aa61f97cf8fdf4b80c1fbb32560405160405180910390a3805f5f6101000a81548173ffffffffffffffffffffffffffffffffffffffff021916908373ffffffffffffffffffffffffffffffffffffffff16021790555050565b606060055f8373ffffffffffffffffffffffffffffffffffffffff1673ffffffffffffffffffffffffffffffffffffffff1681526020019081526020015f208054806020026020016040519081016040528092919081815260200182805480156108f557602002820191905f5260205f20905b815f9054906101000a900473ffffffffffffffffffffffffffffffffffffffff1673ffffffffffffffffffffffffffffffffffffffff16815260200190600101908083116108ac575b50505050509050919050565b5f60055f8373ffffffffffffffffffffffffffffffffffffffff1673ffffffffffffffffffffffffffffffffffffffff1681526020019081526020015f20805490509050919050565b5f5f9054906101000a900473ffffffffffffffffffffffffffffffffffffffff1673ffffffffffffffffffffffffffffffffffffffff163373ffffffffffffffffffffffffffffffffffffffff16146109cf576040517f7bfa4b9f00000000000000000000000000000000000000000000000000000000815260040160405180910390fd5b610bb8811115610a0b576040517f499fddb100000000000000000000000000000000000000000000000000000000815260040160405180910390fd5b7ff247e7445763d3e9a01aee4b64de35f02273d6a1d7264694bb9298109319c8be60025482604051610a3e92919061150c565b60405180910390a18060028190555050565b5f610a59610e52565b5f73ffffffffffffffffffffffffffffffffffffffff168773ffffffffffffffffffffffffffffffffffffffff1603610abe576040517fd92e233d00000000000000000000000000000000000000000000000000000000815260040160405180910390fd5b5f8686905003610afa576040517f0d5003f300000000000000000000000000000000000000000000000000000000815260040160405180910390fd5b428411610b33576040517fbec0058000000000000000000000000000000000000000000000000000000000815260040160405180910390fd5b6103e8831115610b6f576040517fcd4e616700000000000000000000000000000000000000000000000000000000815260040160405180910390fd5b612710821015610bab576040517f5501a94200000000000000000000000000000000000000000000000000000000815260040160405180910390fd5b5f600283610bb99190611533565b9050610be83330838b73ffffffffffffffffffffffffffffffffffffffff16610e74909392919063ffffffff16565b5f88888888888833604051610bfc90611098565b610c0c97969594939291906115ce565b604051809103905ff080158015610c25573d5f5f3e3d5ffd5b509050809250610c5683838b73ffffffffffffffffffffffffffffffffffffffff16610ec99092919063ffffffff16565b600483908060018154018082558091505060019003905f5260205f20015f9091909190916101000a81548173ffffffffffffffffffffffffffffffffffffffff021916908373ffffffffffffffffffffffffffffffffffffffff16021790555060055f3373ffffffffffffffffffffffffffffffffffffffff1673ffffffffffffffffffffffffffffffffffffffff1681526020019081526020015f2083908060018154018082558091505060019003905f5260205f20015f9091909190916101000a81548173ffffffffffffffffffffffffffffffffffffffff021916908373ffffffffffffffffffffffffffffffffffffffff160217905550600160065f8573ffffffffffffffffffffffffffffffffffffffff1673ffffffffffffffffffffffffffffffffffffffff1681526020019081526020015f205f6101000a81548160ff02191690831515021790555060035f8154600101919050819055508873ffffffffffffffffffffffffffffffffffffffff163373ffffffffffffffffffffffffffffffffffffffff168473ffffffffffffffffffffffffffffffffffffffff167ee658621d94668232e7e5db2279d76e6d8ff89b0252e5655882465d5e8a9bba8b8b8b8b8b604051610e30959493929190611636565b60405180910390a45050610e42610f1c565b9695505050505050565b60035481565b610e5a610f36565b6002610e6c610e67610f77565b610fa0565b5f0181905550565b610e82848484846001610fa9565b610ec357836040517f5274afe7000000000000000000000000000000000000000000000000000000008152600401610eba9190611172565b60405180910390fd5b50505050565b610ed6838383600161101a565b610f1757826040517f5274afe7000000000000000000000000000000000000000000000000000000008152600401610f0e9190611172565b60405180910390fd5b505050565b6001610f2e610f29610f77565b610fa0565b5f0181905550565b610f3e61107c565b15610f75576040517f3ee5aeb500000000000000000000000000000000000000000000000000000000815260040160405180910390fd5b565b5f7f9b779b17422d0df92223018b32b4d1fa46e071723d6817e2486d003becc55f005f1b905090565b5f819050919050565b5f5f6323b872dd60e01b9050604051815f525f1960601c87166004525f1960601c86166024528460445260205f60645f5f8c5af1925060015f51148316611007578383151615610ffb573d5f823e3d81fd5b5f883b113d1516831692505b806040525f606052505095945050505050565b5f5f63a9059cbb60e01b9050604051815f525f1960601c86166004528460245260205f60445f5f8b5af1925060015f5114831661106e578383151615611062573d5f823e3d81fd5b5f873b113d1516831692505b806040525050949350505050565b5f600261108f61108a610f77565b610fa0565b5f015414905090565b612be08061168383390190565b5f5ffd5b5f5ffd5b5f73ffffffffffffffffffffffffffffffffffffffff82169050919050565b5f6110d6826110ad565b9050919050565b6110e6816110cc565b81146110f0575f5ffd5b50565b5f81359050611101816110dd565b92915050565b5f6020828403121561111c5761111b6110a5565b5b5f611129848285016110f3565b91505092915050565b5f819050919050565b61114481611132565b82525050565b5f60208201905061115d5f83018461113b565b92915050565b61116c816110cc565b82525050565b5f6020820190506111855f830184611163565b92915050565b5f8115159050919050565b61119f8161118b565b82525050565b5f6020820190506111b85f830184611196565b92915050565b6111c781611132565b81146111d1575f5ffd5b50565b5f813590506111e2816111be565b92915050565b5f5f604083850312156111fe576111fd6110a5565b5b5f61120b858286016111d4565b925050602061121c858286016111d4565b9150509250929050565b5f81519050919050565b5f82825260208201905092915050565b5f819050602082019050919050565b611258816110cc565b82525050565b5f611269838361124f565b60208301905092915050565b5f602082019050919050565b5f61128b82611226565b6112958185611230565b93506112a083611240565b805f5b838110156112d05781516112b7888261125e565b97506112c283611275565b9250506001810190506112a3565b5085935050505092915050565b5f6020820190508181035f8301526112f58184611281565b905092915050565b5f60208284031215611312576113116110a5565b5b5f61131f848285016111d4565b91505092915050565b5f5ffd5b5f5ffd5b5f5ffd5b5f5f83601f84011261134957611348611328565b5b8235905067ffffffffffffffff8111156113665761136561132c565b5b60208301915083600182028301111561138257611381611330565b5b9250929050565b5f5f5f5f5f5f60a087890312156113a3576113a26110a5565b5b5f6113b089828a016110f3565b965050602087013567ffffffffffffffff8111156113d1576113d06110a9565b5b6113dd89828a01611334565b955095505060406113f089828a016111d4565b935050606061140189828a016111d4565b925050608061141289828a016111d4565b9150509295509295509295565b7f4e487b71000000000000000000000000000000000000000000000000000000005f52604160045260245ffd5b7f4e487b71000000000000000000000000000000000000000000000000000000005f52601160045260245ffd5b5f61148382611132565b915061148e83611132565b92508282019050808211156114a6576114a561144c565b5b92915050565b5f6114b682611132565b91506114c183611132565b92508282039050818111156114d9576114d861144c565b5b92915050565b7f4e487b71000000000000000000000000000000000000000000000000000000005f52603260045260245ffd5b5f60408201905061151f5f83018561113b565b61152c602083018461113b565b9392505050565b5f61153d82611132565b915061154883611132565b925082820261155681611132565b9150828204841483151761156d5761156c61144c565b5b5092915050565b5f82825260208201905092915050565b828183375f83830152505050565b5f601f19601f8301169050919050565b5f6115ad8385611574565b93506115ba838584611584565b6115c383611592565b840190509392505050565b5f60c0820190506115e15f83018a611163565b81810360208301526115f481888a6115a2565b9050611603604083018761113b565b611610606083018661113b565b61161d608083018561113b565b61162a60a0830184611163565b98975050505050505050565b5f6080820190508181035f83015261164f8187896115a2565b905061165e602083018661113b565b61166b604083018561113b565b611678606083018461113b565b969550505050505056fe610100604052348015610010575f5ffd5b50604051612be0380380612be083398181016040528101906100329190610586565b600161005061004561037a60201b60201c565b6103a360201b60201c565b5f01819055505f73ffffffffffffffffffffffffffffffffffffffff168673ffffffffffffffffffffffffffffffffffffffff16036100bb576040517fd92e233d00000000000000000000000000000000000000000000000000000000815260040160405180910390fd5b5f73ffffffffffffffffffffffffffffffffffffffff168173ffffffffffffffffffffffffffffffffffffffff1603610120576040517fd92e233d00000000000000000000000000000000000000000000000000000000815260040160405180910390fd5b428411610159576040517fbec0058000000000000000000000000000000000000000000000000000000000815260040160405180910390fd5b6103e8831115610195576040517fcd4e616700000000000000000000000000000000000000000000000000000000815260040160405180910390fd5b6127108210156101d1576040517f5501a94200000000000000000000000000000000000000000000000000000000815260040160405180910390fd5b8573ffffffffffffffffffffffffffffffffffffffff1660808173ffffffffffffffffffffffffffffffffffffffff1681525050845f90816102139190610843565b508360c081815250508260e081815250508073ffffffffffffffffffffffffffffffffffffffff1660a08173ffffffffffffffffffffffffffffffffffffffff16815250505f60095f6101000a81548160ff0219169083600281111561027c5761027b610912565b5b021790555081600181905550816002819055508160035f8373ffffffffffffffffffffffffffffffffffffffff1673ffffffffffffffffffffffffffffffffffffffff1681526020019081526020015f20819055508160045f8373ffffffffffffffffffffffffffffffffffffffff1673ffffffffffffffffffffffffffffffffffffffff1681526020019081526020015f2081905550816005819055508160068190555060028261032e919061096c565b60075f8373ffffffffffffffffffffffffffffffffffffffff1673ffffffffffffffffffffffffffffffffffffffff1681526020019081526020015f20819055505050505050506109ad565b5f7f9b779b17422d0df92223018b32b4d1fa46e071723d6817e2486d003becc55f005f1b905090565b5f819050919050565b5f604051905090565b5f5ffd5b5f5ffd5b5f73ffffffffffffffffffffffffffffffffffffffff82169050919050565b5f6103e6826103bd565b9050919050565b6103f6816103dc565b8114610400575f5ffd5b50565b5f81519050610411816103ed565b92915050565b5f5ffd5b5f5ffd5b5f601f19601f8301169050919050565b7f4e487b71000000000000000000000000000000000000000000000000000000005f52604160045260245ffd5b6104658261041f565b810181811067ffffffffffffffff821117156104845761048361042f565b5b80604052505050565b5f6104966103ac565b90506104a2828261045c565b919050565b5f67ffffffffffffffff8211156104c1576104c061042f565b5b6104ca8261041f565b9050602081019050919050565b8281835e5f83830152505050565b5f6104f76104f2846104a7565b61048d565b9050828152602081018484840111156105135761051261041b565b5b61051e8482856104d7565b509392505050565b5f82601f83011261053a57610539610417565b5b815161054a8482602086016104e5565b91505092915050565b5f819050919050565b61056581610553565b811461056f575f5ffd5b50565b5f815190506105808161055c565b92915050565b5f5f5f5f5f5f60c087890312156105a05761059f6103b5565b5b5f6105ad89828a01610403565b965050602087015167ffffffffffffffff8111156105ce576105cd6103b9565b5b6105da89828a01610526565b95505060406105eb89828a01610572565b94505060606105fc89828a01610572565b935050608061060d89828a01610572565b92505060a061061e89828a01610403565b9150509295509295509295565b5f81519050919050565b7f4e487b71000000000000000000000000000000000000000000000000000000005f52602260045260245ffd5b5f600282049050600182168061067957607f821691505b60208210810361068c5761068b610635565b5b50919050565b5f819050815f5260205f209050919050565b5f6020601f8301049050919050565b5f82821b905092915050565b5f600883026106ee7fffffffffffffffffffffffffffffffffffffffffffffffffffffffffffffffff826106b3565b6106f886836106b3565b95508019841693508086168417925050509392505050565b5f819050919050565b5f61073361072e61072984610553565b610710565b610553565b9050919050565b5f819050919050565b61074c83610719565b6107606107588261073a565b8484546106bf565b825550505050565b5f5f905090565b610777610768565b610782818484610743565b505050565b5f5b828110156107a85761079d5f82840161076f565b600181019050610789565b505050565b601f8211156107fb57828211156107fa576107c781610692565b6107d0836106a4565b6107d9856106a4565b60208610156107e6575f90505b8083016107f582840382610787565b505050505b5b505050565b5f82821c905092915050565b5f61081b5f1984600802610800565b1980831691505092915050565b5f610833838361080c565b9150826002028217905092915050565b61084c8261062b565b67ffffffffffffffff8111156108655761086461042f565b5b61086f8254610662565b61087a8282856107ad565b5f60209050601f8311600181146108ab575f8415610899578287015190505b6108a38582610828565b86555061090a565b601f1984166108b986610692565b5f5b828110156108e0578489015182556001820191506020850194506020810190506108bb565b868310156108fd57848901516108f9601f89168261080c565b8355505b6001600288020188555050505b505050505050565b7f4e487b71000000000000000000000000000000000000000000000000000000005f52602160045260245ffd5b7f4e487b71000000000000000000000000000000000000000000000000000000005f52601160045260245ffd5b5f61097682610553565b915061098183610553565b925082820261098f81610553565b915082820484148315176109a6576109a561093f565b5b5092915050565b60805160a05160c05160e051612197610a495f395f81816107c70152818161098201526117ef01525f818161062e015281816107eb0152818161084c015281816108e8015261104601525f818161053e01528181610d6f01528181610e4501528181610ead01526117c501525f818161068b01528181610c3001528181610e6701528181611332015281816116f401526117a101526121975ff3fe608060405234801561000f575f5ffd5b50600436106101c2575f3560e01c80636540742f116100f7578063b5545a3c11610095578063d73792a91161006f578063d73792a91461049e578063d8dfeb45146104bc578063f437bc59146104da578063feb921da146104f8576101c2565b8063b5545a3c1461046c578063b88a802f14610476578063d31dbc3e14610480576101c2565b806373b2e80e116100d157806373b2e80e146103d0578063818fa94114610400578063a3b5afb114610430578063b066bc791461044e576101c2565b80636540742f14610376578063682c2058146103945780636f1d4ea4146103b2576101c2565b80633fad9ae011610164578063530554811161013e57806353055481146102da57806356bc793e1461030a5780635ae01f821461033a5780636318767e14610358576101c2565b80633fad9ae014610294578063476343ee146102b257806350dfdbfb146102bc576101c2565b806324a9d853116101a057806324a9d8531461021e57806329dcb0cf1461023c5780632f13b60c1461025a5780633438f6a214610278576101c2565b806308d367fb146101c65780630bede3f8146101e4578063200d2ed214610200575b5f5ffd5b6101ce610529565b6040516101db9190611b79565b60405180910390f35b6101fe60048036038101906101f99190611bc0565b61053c565b005b6102086107b3565b6040516102159190611c5e565b60405180910390f35b6102266107c5565b6040516102339190611c8f565b60405180910390f35b6102446107e9565b6040516102519190611c8f565b60405180910390f35b61026261080d565b60405161026f9190611b79565b60405180910390f35b610292600480360381019061028d9190611cd2565b610873565b005b61029c610ce2565b6040516102a99190611d92565b60405180910390f35b6102ba610d6d565b005b6102c4610f24565b6040516102d19190611c8f565b60405180910390f35b6102f460048036038101906102ef9190611e0c565b610f70565b6040516103019190611c8f565b60405180910390f35b610324600480360381019061031f9190611e0c565b610f85565b6040516103319190611c8f565b60405180910390f35b610342610f9a565b60405161034f9190611c8f565b60405180910390f35b610360610fa0565b60405161036d9190611c8f565b60405180910390f35b61037e610fa6565b60405161038b9190611c8f565b60405180910390f35b61039c610fac565b6040516103a99190611c8f565b60405180910390f35b6103ba610fb2565b6040516103c79190611c8f565b60405180910390f35b6103ea60048036038101906103e59190611e0c565b610fb8565b6040516103f79190611b79565b60405180910390f35b61041a60048036038101906104159190611e0c565b610fd5565b6040516104279190611c8f565b60405180910390f35b610438610fea565b6040516104459190611c8f565b60405180910390f35b610456610ff0565b6040516104639190611c8f565b60405180910390f35b61047461103c565b005b61047e6113cf565b005b610488611793565b6040516104959190611c8f565b60405180910390f35b6104a6611799565b6040516104b39190611c8f565b60405180910390f35b6104c461179f565b6040516104d19190611e92565b60405180910390f35b6104e26117c3565b6040516104ef9190611eba565b60405180910390f35b610512600480360381019061050d9190611ed3565b6117e7565b604051610520929190611f11565b60405180910390f35b600960019054906101000a900460ff1681565b7f000000000000000000000000000000000000000000000000000000000000000073ffffffffffffffffffffffffffffffffffffffff163373ffffffffffffffffffffffffffffffffffffffff16146105c1576040517f8ff4f0c900000000000000000000000000000000000000000000000000000000815260040160405180910390fd5b5f60028111156105d4576105d3611beb565b5b60095f9054906101000a900460ff1660028111156105f5576105f4611beb565b5b1461062c576040517fc02d38cc00000000000000000000000000000000000000000000000000000000815260040160405180910390fd5b7f0000000000000000000000000000000000000000000000000000000000000000421115610686576040517f70f65caa00000000000000000000000000000000000000000000000000000000815260040160405180910390fd5b6008547f000000000000000000000000000000000000000000000000000000000000000073ffffffffffffffffffffffffffffffffffffffff166370a08231306040518263ffffffff1660e01b81526004016106e29190611eba565b602060405180830381865afa1580156106fd573d5f5f3e3d5ffd5b505050506040513d601f19601f820116820180604052508101906107219190611f4c565b61072b9190611fa4565b600a81905550600160095f6101000a81548160ff0219169083600281111561075657610755611beb565b5b021790555080600960016101000a81548160ff0219169083151502179055507ff680d0bd10cbd56c6089965028487f8751c5e7485ee076c45e809af3357408b381600a546040516107a8929190611fd7565b60405180910390a150565b60095f9054906101000a900460ff1681565b7f000000000000000000000000000000000000000000000000000000000000000081565b7f000000000000000000000000000000000000000000000000000000000000000081565b5f5f600281111561082157610820611beb565b5b60095f9054906101000a900460ff16600281111561084257610841611beb565b5b14801561086e57507f000000000000000000000000000000000000000000000000000000000000000042115b905090565b61087b611919565b5f600281111561088e5761088d611beb565b5b60095f9054906101000a900460ff1660028111156108af576108ae611beb565b5b146108e6576040517fc02d38cc00000000000000000000000000000000000000000000000000000000815260040160405180910390fd5b7f0000000000000000000000000000000000000000000000000000000000000000421115610940576040517f70f65caa00000000000000000000000000000000000000000000000000000000815260040160405180910390fd5b61271082101561097c576040517f5688ffb300000000000000000000000000000000000000000000000000000000815260040160405180910390fd5b5f6127107f0000000000000000000000000000000000000000000000000000000000000000846109ac9190611ffe565b6109b6919061206c565b90505f81846109c59190611fa4565b90505f6002546001546109d89190611ffe565b90505f8615610a91575f836002546109f0919061209c565b90505f81846109ff919061206c565b905080600154610a0f9190611fa4565b925080600181905550816002819055508260035f3373ffffffffffffffffffffffffffffffffffffffff1673ffffffffffffffffffffffffffffffffffffffff1681526020019081526020015f205f828254610a6b919061209c565b925050819055508260055f828254610a83919061209c565b925050819055505050610b3d565b5f83600154610aa0919061209c565b90505f8184610aaf919061206c565b905080600254610abf9190611fa4565b925081600181905550806002819055508260045f3373ffffffffffffffffffffffffffffffffffffffff1673ffffffffffffffffffffffffffffffffffffffff1681526020019081526020015f205f828254610b1b919061209c565b925050819055508260065f828254610b33919061209c565b9250508190555050505b5f8103610b76576040517f9811e0c700000000000000000000000000000000000000000000000000000000815260040160405180910390fd5b84811015610bbd5780856040517f71c4efed000000000000000000000000000000000000000000000000000000008152600401610bb4929190611f11565b60405180910390fd5b8360085f828254610bce919061209c565b925050819055508260075f3373ffffffffffffffffffffffffffffffffffffffff1673ffffffffffffffffffffffffffffffffffffffff1681526020019081526020015f205f828254610c21919061209c565b92505081905550610c753330887f000000000000000000000000000000000000000000000000000000000000000073ffffffffffffffffffffffffffffffffffffffff1661193b909392919063ffffffff16565b8615153373ffffffffffffffffffffffffffffffffffffffff167fc0977828da8ef9af28e2250e77e7705aff232413ebd7bf66bc6bac23afea0bdb8884610cba610f24565b604051610cc9939291906120cf565b60405180910390a350505050610cdd611990565b505050565b5f8054610cee90612131565b80601f0160208091040260200160405190810160405280929190818152602001828054610d1a90612131565b8015610d655780601f10610d3c57610100808354040283529160200191610d65565b820191905f5260205f20905b815481529060010190602001808311610d4857829003601f168201915b505050505081565b7f000000000000000000000000000000000000000000000000000000000000000073ffffffffffffffffffffffffffffffffffffffff163373ffffffffffffffffffffffffffffffffffffffff1614610df2576040517f8ff4f0c900000000000000000000000000000000000000000000000000000000815260040160405180910390fd5b610dfa611919565b5f60085490505f8103610e39576040517f4716db3500000000000000000000000000000000000000000000000000000000815260040160405180910390fd5b5f600881905550610eab7f0000000000000000000000000000000000000000000000000000000000000000827f000000000000000000000000000000000000000000000000000000000000000073ffffffffffffffffffffffffffffffffffffffff166119aa9092919063ffffffff16565b7f000000000000000000000000000000000000000000000000000000000000000073ffffffffffffffffffffffffffffffffffffffff167fc0819c13be868895eb93e40eaceb96de976442fa1d404e5c55f14bb65a8c489a82604051610f119190611c8f565b60405180910390a250610f22611990565b565b5f5f600254600154610f36919061209c565b90505f8103610f48575f915050610f6d565b80670de0b6b3a7640000600254610f5f9190611ffe565b610f69919061206c565b9150505b90565b6007602052805f5260405f205f915090505481565b6004602052805f5260405f205f915090505481565b60065481565b600a5481565b61271081565b60085481565b60015481565b600b602052805f5260405f205f915054906101000a900460ff1681565b6003602052805f5260405f205f915090505481565b60025481565b5f5f600254600154611002919061209c565b90505f8103611014575f915050611039565b80670de0b6b3a764000060015461102b9190611ffe565b611035919061206c565b9150505b90565b611044611919565b7f0000000000000000000000000000000000000000000000000000000000000000421161109d576040517f2eb3543000000000000000000000000000000000000000000000000000000000815260040160405180910390fd5b600160028111156110b1576110b0611beb565b5b60095f9054906101000a900460ff1660028111156110d2576110d1611beb565b5b03611109576040517f671eb0c500000000000000000000000000000000000000000000000000000000815260040160405180910390fd5b600b5f3373ffffffffffffffffffffffffffffffffffffffff1673ffffffffffffffffffffffffffffffffffffffff1681526020019081526020015f205f9054906101000a900460ff161561118a576040517f646cf55800000000000000000000000000000000000000000000000000000000815260040160405180910390fd5b5f60075f3373ffffffffffffffffffffffffffffffffffffffff1673ffffffffffffffffffffffffffffffffffffffff1681526020019081526020015f205490505f8103611204576040517fd758525c00000000000000000000000000000000000000000000000000000000815260040160405180910390fd5b5f600281111561121757611216611beb565b5b60095f9054906101000a900460ff16600281111561123857611237611beb565b5b0361129457600260095f6101000a81548160ff0219169083600281111561126257611261611beb565b5b02179055507fb2094b59f7bc91595f814157011b7c1663fdc0c24c24b51d1e422f480ee431fa60405160405180910390a15b5f60075f3373ffffffffffffffffffffffffffffffffffffffff1673ffffffffffffffffffffffffffffffffffffffff1681526020019081526020015f20819055506001600b5f3373ffffffffffffffffffffffffffffffffffffffff1673ffffffffffffffffffffffffffffffffffffffff1681526020019081526020015f205f6101000a81548160ff02191690831515021790555061137633827f000000000000000000000000000000000000000000000000000000000000000073ffffffffffffffffffffffffffffffffffffffff166119aa9092919063ffffffff16565b3373ffffffffffffffffffffffffffffffffffffffff167f358fe4192934d3bf28ae181feda1f4bd08ca67f5e2fad55582cce5eb67304ae9826040516113bc9190611c8f565b60405180910390a2506113cd611990565b565b6113d7611919565b600160028111156113eb576113ea611beb565b5b60095f9054906101000a900460ff16600281111561140c5761140b611beb565b5b14611443576040517f2e96c72600000000000000000000000000000000000000000000000000000000815260040160405180910390fd5b600b5f3373ffffffffffffffffffffffffffffffffffffffff1673ffffffffffffffffffffffffffffffffffffffff1681526020019081526020015f205f9054906101000a900460ff16156114c4576040517f646cf55800000000000000000000000000000000000000000000000000000000815260040160405180910390fd5b5f5f600960019054906101000a900460ff16156115255760035f3373ffffffffffffffffffffffffffffffffffffffff1673ffffffffffffffffffffffffffffffffffffffff1681526020019081526020015f20549150600554905061156b565b60045f3373ffffffffffffffffffffffffffffffffffffffff1673ffffffffffffffffffffffffffffffffffffffff1681526020019081526020015f2054915060065490505b5f82036115a4576040517f9811e0c700000000000000000000000000000000000000000000000000000000815260040160405180910390fd5b5f81600a54846115b49190611ffe565b6115be919061206c565b90505f81036115f9576040517faf11003600000000000000000000000000000000000000000000000000000000815260040160405180910390fd5b6001600b5f3373ffffffffffffffffffffffffffffffffffffffff1673ffffffffffffffffffffffffffffffffffffffff1681526020019081526020015f205f6101000a81548160ff021916908315150217905550600960019054906101000a900460ff16156116aa575f60035f3373ffffffffffffffffffffffffffffffffffffffff1673ffffffffffffffffffffffffffffffffffffffff1681526020019081526020015f20819055506116ed565b5f60045f3373ffffffffffffffffffffffffffffffffffffffff1673ffffffffffffffffffffffffffffffffffffffff1681526020019081526020015f20819055505b61173833827f000000000000000000000000000000000000000000000000000000000000000073ffffffffffffffffffffffffffffffffffffffff166119aa9092919063ffffffff16565b3373ffffffffffffffffffffffffffffffffffffffff167f106f923f993c2149d49b4255ff723acafa1f2d94393f561d3eda32ae348f72418260405161177e9190611c8f565b60405180910390a2505050611791611990565b565b60055481565b61271081565b7f000000000000000000000000000000000000000000000000000000000000000081565b7f000000000000000000000000000000000000000000000000000000000000000081565b5f5f5f6127107f0000000000000000000000000000000000000000000000000000000000000000856118199190611ffe565b611823919061206c565b90505f81856118329190611fa4565b90505f6002546001546118459190611ffe565b905086156118b0575f8260025461185c919061209c565b90505f818361186b919061206c565b90508060015461187b9190611fa4565b96508181611889919061209c565b670de0b6b3a76400008361189d9190611ffe565b6118a7919061206c565b9550505061190f565b5f826001546118bf919061209c565b90505f81836118ce919061206c565b9050806002546118de9190611fa4565b965080826118ec919061209c565b670de0b6b3a7640000826119009190611ffe565b61190a919061206c565b955050505b5050509250929050565b6119216119fd565b600261193361192e611a3e565b611a67565b5f0181905550565b611949848484846001611a70565b61198a57836040517f5274afe70000000000000000000000000000000000000000000000000000000081526004016119819190611eba565b60405180910390fd5b50505050565b60016119a261199d611a3e565b611a67565b5f0181905550565b6119b78383836001611ae1565b6119f857826040517f5274afe70000000000000000000000000000000000000000000000000000000081526004016119ef9190611eba565b60405180910390fd5b505050565b611a05611b43565b15611a3c576040517f3ee5aeb500000000000000000000000000000000000000000000000000000000815260040160405180910390fd5b565b5f7f9b779b17422d0df92223018b32b4d1fa46e071723d6817e2486d003becc55f005f1b905090565b5f819050919050565b5f5f6323b872dd60e01b9050604051815f525f1960601c87166004525f1960601c86166024528460445260205f60645f5f8c5af1925060015f51148316611ace578383151615611ac2573d5f823e3d81fd5b5f883b113d1516831692505b806040525f606052505095945050505050565b5f5f63a9059cbb60e01b9050604051815f525f1960601c86166004528460245260205f60445f5f8b5af1925060015f51148316611b35578383151615611b29573d5f823e3d81fd5b5f873b113d1516831692505b806040525050949350505050565b5f6002611b56611b51611a3e565b611a67565b5f015414905090565b5f8115159050919050565b611b7381611b5f565b82525050565b5f602082019050611b8c5f830184611b6a565b92915050565b5f5ffd5b611b9f81611b5f565b8114611ba9575f5ffd5b50565b5f81359050611bba81611b96565b92915050565b5f60208284031215611bd557611bd4611b92565b5b5f611be284828501611bac565b91505092915050565b7f4e487b71000000000000000000000000000000000000000000000000000000005f52602160045260245ffd5b60038110611c2957611c28611beb565b5b50565b5f819050611c3982611c18565b919050565b5f611c4882611c2c565b9050919050565b611c5881611c3e565b82525050565b5f602082019050611c715f830184611c4f565b92915050565b5f819050919050565b611c8981611c77565b82525050565b5f602082019050611ca25f830184611c80565b92915050565b611cb181611c77565b8114611cbb575f5ffd5b50565b5f81359050611ccc81611ca8565b92915050565b5f5f5f60608486031215611ce957611ce8611b92565b5b5f611cf686828701611bac565b9350506020611d0786828701611cbe565b9250506040611d1886828701611cbe565b9150509250925092565b5f81519050919050565b5f82825260208201905092915050565b8281835e5f83830152505050565b5f601f19601f8301169050919050565b5f611d6482611d22565b611d6e8185611d2c565b9350611d7e818560208601611d3c565b611d8781611d4a565b840191505092915050565b5f6020820190508181035f830152611daa8184611d5a565b905092915050565b5f73ffffffffffffffffffffffffffffffffffffffff82169050919050565b5f611ddb82611db2565b9050919050565b611deb81611dd1565b8114611df5575f5ffd5b50565b5f81359050611e0681611de2565b92915050565b5f60208284031215611e2157611e20611b92565b5b5f611e2e84828501611df8565b91505092915050565b5f819050919050565b5f611e5a611e55611e5084611db2565b611e37565b611db2565b9050919050565b5f611e6b82611e40565b9050919050565b5f611e7c82611e61565b9050919050565b611e8c81611e72565b82525050565b5f602082019050611ea55f830184611e83565b92915050565b611eb481611dd1565b82525050565b5f602082019050611ecd5f830184611eab565b92915050565b5f5f60408385031215611ee957611ee8611b92565b5b5f611ef685828601611bac565b9250506020611f0785828601611cbe565b9150509250929050565b5f604082019050611f245f830185611c80565b611f316020830184611c80565b9392505050565b5f81519050611f4681611ca8565b92915050565b5f60208284031215611f6157611f60611b92565b5b5f611f6e84828501611f38565b91505092915050565b7f4e487b71000000000000000000000000000000000000000000000000000000005f52601160045260245ffd5b5f611fae82611c77565b9150611fb983611c77565b9250828203905081811115611fd157611fd0611f77565b5b92915050565b5f604082019050611fea5f830185611b6a565b611ff76020830184611c80565b9392505050565b5f61200882611c77565b915061201383611c77565b925082820261202181611c77565b9150828204841483151761203857612037611f77565b5b5092915050565b7f4e487b71000000000000000000000000000000000000000000000000000000005f52601260045260245ffd5b5f61207682611c77565b915061208183611c77565b9250826120915761209061203f565b5b828204905092915050565b5f6120a682611c77565b91506120b183611c77565b92508282019050808211156120c9576120c8611f77565b5b92915050565b5f6060820190506120e25f830186611c80565b6120ef6020830185611c80565b6120fc6040830184611c80565b949350505050565b7f4e487b71000000000000000000000000000000000000000000000000000000005f52602260045260245ffd5b5f600282049050600182168061214857607f821691505b60208210810361215b5761215a612104565b5b5091905056fea264697066735822122037e3f5e747abb6ab7c155c4f6133a978613778c3fbfba8d640d2eb18d894c11264736f6c63430008210033a26469706673582212207aae2e5e47a1a7d39fb4a900db3f2f01dffe32d06decc515b0e39513b9957ffa64736f6c63430008210033","linkReferences":{}},"methodIdentifiers":{"MAX_MARKET_FEE_BPS()":"49646e7e","MAX_PROTOCOL_FEE_BPS()":"6d947e4b","createMarket(address,string,uint256,uint256,uint256)":"d522056f","getMarkets(uint256,uint256)":"80968d48","getMarketsByHost(address)":"a899c1f0","isMarket(address)":"6ec934da","marketCount()":"ec979082","marketCountByHost(address)":"b77def9b","protocolAdmin()":"420f6861","protocolFeeBps()":"35659fb8","protocolTreasury()":"803db96d","setProtocolAdmin(address)":"9a09b285","setProtocolFeeBps(uint256)":"c0417e58","setProtocolTreasury(address)":"0c5a61f8"},"id":32}